{
  "address": "0x558e670C64766Fb7992252E14F020C0F7383D5A1",
  "abi": [
    {
      "inputs": [],
      "name": "blockNumber",
      "outputs": [
        {
          "internalType": "uint256",
          "name": "",
          "type": "uint256"
        }
      ],
      "stateMutability": "view",
      "type": "function"
    }
  ],
  "transactionHash": "0xf0504e58209e4bbcae518d2cd310b12c84156a5c07dff35434c71f8e9b009ca9",
  "args": [],
  "numDeployments": 3,
  "solcInputHash": "9534fd680a8c5629fa7fc494cf020573",
  "bytecode": "0x6080604052348015600f57600080fd5b50607680601d6000396000f3fe6080604052348015600f57600080fd5b506004361060285760003560e01c806357e871e714602d575b600080fd5b4360405190815260200160405180910390f3fea2646970667358221220b2f721f03ca499d18d6c0ecb15bd0ed0e2af461271ab1b9caa129c59efc5303964736f6c63430008110033",
  "devdoc": {
    "kind": "dev",
    "methods": {},
    "version": 1
  },
  "userdoc": {
    "kind": "user",
    "methods": {},
    "version": 1
  },
  "storageLayout": {
    "storage": [],
    "types": null
  }
}