{
  "address": "0xfAF7ab27AB44075204D49c2B24C9034C10ff75d9",
  "abi": [
    {
      "inputs": [],
      "stateMutability": "nonpayable",
      "type": "constructor"
    },
    {
      "anonymous": false,
      "inputs": [
        {
          "indexed": true,
          "internalType": "address",
          "name": "owner",
          "type": "address"
        },
        {
          "indexed": false,
          "internalType": "uint256",
          "name": "amount",
          "type": "uint256"
        }
      ],
      "name": "FundsWithdrawn",
      "type": "event"
    },
    {
      "anonymous": false,
      "inputs": [
        {
          "indexed": true,
          "internalType": "address",
          "name": "player",
          "type": "address"
        },
        {
          "indexed": false,
          "internalType": "uint8",
          "name": "playerChoice",
          "type": "uint8"
        },
        {
          "indexed": false,
          "internalType": "uint8",
          "name": "contractChoice",
          "type": "uint8"
        },
        {
          "indexed": false,
          "internalType": "uint8",
          "name": "result",
          "type": "uint8"
        },
        {
          "indexed": false,
          "internalType": "uint256",
          "name": "payout",
          "type": "uint256"
        }
      ],
      "name": "GamePlayed",
      "type": "event"
    },
    {
      "anonymous": false,
      "inputs": [
        {
          "indexed": true,
          "internalType": "address",
          "name": "previousOwner",
          "type": "address"
        },
        {
          "indexed": true,
          "internalType": "address",
          "name": "newOwner",
          "type": "address"
        }
      ],
      "name": "OwnershipTransferred",
      "type": "event"
    },
    {
      "inputs": [],
      "name": "getBalance",
      "outputs": [
        {
          "internalType": "uint256",
          "name": "",
          "type": "uint256"
        }
      ],
      "stateMutability": "view",
      "type": "function"
    },
    {
      "inputs": [],
      "name": "owner",
      "outputs": [
        {
          "internalType": "address",
          "name": "",
          "type": "address"
        }
      ],
      "stateMutability": "view",
      "type": "function"
    },
    {
      "inputs": [
        {
          "internalType": "uint8",
          "name": "_playerChoice",
          "type": "uint8"
        }
      ],
      "name": "play",
      "outputs": [],
      "stateMutability": "payable",
      "type": "function"
    },
    {
      "inputs": [],
      "name": "renounceOwnership",
      "outputs": [],
      "stateMutability": "nonpayable",
      "type": "function"
    },
    {
      "inputs": [
        {
          "internalType": "address",
          "name": "newOwner",
          "type": "address"
        }
      ],
      "name": "transferOwnership",
      "outputs": [],
      "stateMutability": "nonpayable",
      "type": "function"
    },
    {
      "inputs": [],
      "name": "withdraw",
      "outputs": [],
      "stateMutability": "nonpayable",
      "type": "function"
    },
    {
      "stateMutability": "payable",
      "type": "receive"
    }
  ],
  "transactionHash": "0x33b9c57440db7a78979e8959cab22616df9fa99ed5155d47c401bc61d3acb6d0",
  "args": [],
  "numDeployments": 5,
  "solcInputHash": "338310cb724496bb81c4c098d40ea8ac",
  "bytecode": "0x608060405234801561001057600080fd5b5061001a3361001f565b61006f565b600080546001600160a01b038381166001600160a01b0319831681178455604051919092169283917f8be0079c531659141344cd1fd0a4f28419497f9722a3daafe3b4186f6b6457e09190a35050565b6107278061007e6000396000f3fe6080604052600436106100595760003560e01c806312065fe0146100655780633ccfd60b1461008557806353a04b051461009c578063715018a6146100af5780638da5cb5b146100c4578063f2fde38b146100ec57600080fd5b3661006057005b600080fd5b34801561007157600080fd5b506040514781526020015b60405180910390f35b34801561009157600080fd5b5061009a61010c565b005b61009a6100aa366004610636565b610253565b3480156100bb57600080fd5b5061009a6104ff565b3480156100d057600080fd5b506000546040516001600160a01b03909116815260200161007c565b3480156100f857600080fd5b5061009a610107366004610660565b610513565b61011461058c565b478061015e5760405162461bcd60e51b81526020600482015260146024820152734e6f2066756e647320746f20776974686472617760601b60448201526064015b60405180910390fd5b600080546040516001600160a01b039091169083908381818185875af1925050503d80600081146101ab576040519150601f19603f3d011682016040523d82523d6000602084013e6101b0565b606091505b50509050806102015760405162461bcd60e51b815260206004820152601860248201527f4661696c656420746f2077697468647261772066756e647300000000000000006044820152606401610155565b6000546001600160a01b03166001600160a01b03167feaff4b37086828766ad3268786972c0cd24259d4c87a80f9d3963a3c3d999b0d8360405161024791815260200190565b60405180910390a25050565b600034116102b15760405162461bcd60e51b815260206004820152602560248201527f42657474696e6720616d6f756e74206d75737420626520677265617465722074604482015264068616e20360dc1b6064820152608401610155565b60018160ff16101580156102c9575060038160ff1611155b6103065760405162461bcd60e51b815260206004820152600e60248201526d496e76616c69642063686f69636560901b6044820152606401610155565b3447101561036e5760405162461bcd60e51b815260206004820152602f60248201527f436f6e747261637420646f65736e2774206861766520656e6f7567682062616c60448201526e185b98d948199bdc881c995dd85c99608a1b6064820152608401610155565b600061037b600343610689565b6103869060016106c1565b90506000808260ff168460ff16036103a357506001905034610412565b8360ff1660011480156103b957508260ff166003145b806103d557508360ff1660021480156103d557508260ff166001145b806103f157508360ff1660031480156103f157508260ff166002145b1561040b576002915061040434836106da565b9050610412565b5060009050805b80156104aa57604051600090339083908381818185875af1925050503d806000811461045a576040519150601f19603f3d011682016040523d82523d6000602084013e61045f565b606091505b50509050806104a85760405162461bcd60e51b815260206004820152601560248201527411985a5b1959081d1bc81cd95b99081c185e5bdd5d605a1b6044820152606401610155565b505b6040805160ff8681168252858116602083015284168183015260608101839052905133917fd76a8252f9bd1308a591f69721370ed05f0935595661a7d5ba72c2f5f3c3d669919081900360800190a250505050565b61050761058c565b61051160006105e6565b565b61051b61058c565b6001600160a01b0381166105805760405162461bcd60e51b815260206004820152602660248201527f4f776e61626c653a206e6577206f776e657220697320746865207a65726f206160448201526564647265737360d01b6064820152608401610155565b610589816105e6565b50565b6000546001600160a01b031633146105115760405162461bcd60e51b815260206004820181905260248201527f4f776e61626c653a2063616c6c6572206973206e6f7420746865206f776e65726044820152606401610155565b600080546001600160a01b038381166001600160a01b0319831681178455604051919092169283917f8be0079c531659141344cd1fd0a4f28419497f9722a3daafe3b4186f6b6457e09190a35050565b60006020828403121561064857600080fd5b813560ff8116811461065957600080fd5b9392505050565b60006020828403121561067257600080fd5b81356001600160a01b038116811461065957600080fd5b6000826106a657634e487b7160e01b600052601260045260246000fd5b500690565b634e487b7160e01b600052601160045260246000fd5b808201808211156106d4576106d46106ab565b92915050565b80820281158282048414176106d4576106d46106ab56fea2646970667358221220af8904b6484a84cd9f1608b2232f8dc8ca1750f2b2fcfbca9cfb33326711c79564736f6c63430008110033",
  "devdoc": {
    "kind": "dev",
    "methods": {
      "owner()": {
        "details": "Returns the address of the current owner."
      },
      "renounceOwnership()": {
        "details": "Leaves the contract without owner. It will not be possible to call `onlyOwner` functions. Can only be called by the current owner. NOTE: Renouncing ownership will leave the contract without an owner, thereby disabling any functionality that is only available to the owner."
      },
      "transferOwnership(address)": {
        "details": "Transfers ownership of the contract to a new account (`newOwner`). Can only be called by the current owner."
      }
    },
    "version": 1
  },
  "userdoc": {
    "kind": "user",
    "methods": {},
    "version": 1
  },
  "storageLayout": {
    "storage": [
      {
        "astId": 7,
        "contract": "contracts/RockPaperScissors.sol:RockPaperScissors",
        "label": "_owner",
        "offset": 0,
        "slot": "0",
        "type": "t_address"
      }
    ],
    "types": {
      "t_address": {
        "encoding": "inplace",
        "label": "address",
        "numberOfBytes": "20"
      }
    }
  }
}